S0170000435331343550726F6A656374352D312E7372656373
S11300000C942A000C9447000C9447000C9447006D
S11300100C9447000C9447000C9447000C94470040
S11300200C9447000C949E020C9447000C944700D7
S11300300C9447000C9447000C9447000C94470020
S11300400C9447000C9447000C9447000C94470010
S11300500C94470011241FBECFE5D8E0DEBFCDBF0E
S113006011E0A0E6B0E0EEE3F8E002C005900D92E6
S1130070A437B107D9F721E0A4E7B1E001C01D928C
S1130080A138B207E1F70E94B6020C941D040C9447
S113009000009C0183E083BF83E807C082BF98B758
S11300A0916098BF08B600FEFDCF21503109B0F72A
S11300B013BE089514BA15BAA09AA19AA29A80916F
S11300C080018370880F85BBA89A08959B9B04C008
S11300D09C9904C082E003C080E001C081E09D9B44
S11300E005C09E9B02C08460089588600895CF93E4
S11300F0DF93CDB7DEB728970FB6F894DEBF0FBEF7
S1130100CDBF80917801813091F038F0823009F4CC
S1130110BEC0833009F4C4C075C081E08093780107
S1130120E9E7F1E0808383E28183128278C08091E1
S11301307501882371F080917401882321F082E095
S11301408093780103C083E0809378010E941402B5
S113015039C080917B01811123C080917A01811182
S113016018C08091790181110BC081E080937501E1
S11301701092740183E0809378010E94140222C0DB
S1130180E9E7F1E0815080838BE3818389E0828316
S113019046C0E9E7F1E08150818389E082833FC072
S11301A0E9E7F1E081508283918189E8989F812D6C
S11301B0112482958F702EE1829F90191124911140
S11301C02EC097C090917A0189E8989F812D1124BF
S11301D082958F702EE1829F90191124911115C080
S11301E080917B01811111C060E080E00E941902BE
S11301F080917F010E942D0280917F018F5F809307
S11302007F0103C01092780179C080917801823017
S1130210F1F1833009F444C0813009F06FC0E9E79B
S1130220F1E020818DEC289F912D112496959695CF
S11302309695492F440F342F330F330F340F231B5C
S1130240205D2A83905D99839AE39B839181989F93
S1130250812D1124869586958695382F330F232F6B
S1130260220F220F230F921B905D9D83805D8C8350
S11302708EE28E838281805D8F83188664E080E0C5
S11302800E941902CE0101960E94310237C060E03B
S113029080E00E94190288E591E00E9431022EC09C
S11302A060E080E00E94190286E691E00E9431023B
S11302B080917F018830A8F46CE080E00E941902EC
S11302C080917F010E942D0280917F018F5F809336
S11302D07F0186E990E00E94490080917F01883087
S11302E058F36CE080E00E94190280E20E942D0223
S11302F005C080917B01811192CF76CF28960FB6ED
S1130300F894DEBF0FBECDBFDF91CF910895109258
S11303107D0108950E946600982F937069F09130D2
S113032031F490917D01916090937D0105C091E03D
S1130330909375011092740186958695837071F07F
S1130340813031F480917D01826080937D0106C00B
S113035081E08093750110927401089580917D016C
S11303608370833049F480917501813029F081E0F4
S113037080937501809374010895882311F0C09AC5
S113038001C0C098C19A11BA80B3C29A000000009B
S1130390000011BA80B3C2980895662311F0C09A80
S11303A001C0C098C19882BB8FEF81BBC29A000084
S11303B000000000C2980895CF93DF93C82FD62F72
S11303C080E00E94BD018823DCF36D2F8C2F0E94F6
S11303D0CD01DF91CF910895B89AB99ABA9A80E184
S11303E090E00E94490060E080E30E94CD0185E036
S11303F090E00E94490060E080E30E94CD0181E02A
S113040090E00E94490060E08CE30E94DC0160E01F
S11304108CE00E94DC0160E086E00E94DC0160E088
S113042081E00E94DC01089560E081E00E94DC012B
S11304300895CF93C62F98E2899FC00D112460E0E0
S113044082E00E94DC01CC2331F060E084E10E9470
S1130450DC01C150D1F7CF91089561E00E94DC0125
S11304600895CF93DF93EC012196FC0180818823CA
S113047031F061E00E94DC0189918111FACFDF91B2
S1130480CF910895EF92FF920F931F93CF93DF9331
S113049000D01F92CDB7DEB77C018B0180E00E94B3
S11304A0BD018F77898360E080E40E94DC01000F46
S11304B0111F000F111F000F111F10161106CCF091
S11304C012C061E0EA81FB818191FB83EA830E948F
S11304D0DC018A819B818E159F0529F0EA81FB81CD
S11304E00E171F0771F760E0898180680E94DC01A4
S11304F00DC061E0F7018191FB83EA830E94DC0176
S11305000E0D1F1DF0E4EF0EF11CE8CF0F900F90BD
S11305100F90DF91CF911F910F91FF90EF9008956D
S11305201FBC83E08EBD8CE29FEC9DBD8CBD84E03E
S113053089BF88B7846088BF789408951F920F920A
S11305400FB60F9211248F939F9381E080937601CD
S11305508CE29FEC9DBD8CBD88B7846088BF9F9161
S11305608F910F900FBE0F901F9018950E942A0331
S11305700E940D04959587959595879595958795F2
S11305809595879583709078992324F401978C6FBF
S11305909F6F0196809380010E945A000E94EC0193
S11305A068E070E084E690E00E9442020E94330317
S11305B00E941C030E9490020E94870110927801FD
S11305C00E94140210927F0160E080E00E941902F0
S11305D080917F010E942D020E9477000E94F902FF
S11305E00E948A01809176018823E1F310927601BA
S11305F0F3CF8091750181111DC0E091800180913C
S113060077019DE2E99FF0011124EC55FF4FE80FBB
S1130610F11D8081882311F0DB9A01C0DB98809161
S1130620770190E001966DE270E00E9436038093BA
S113063077010895DB98089510927701D39ADB9897
S1130640089580E487B980EC86B93699FECF84B1E9
S113065095B10895D098D8980E9421030E9421034F
S11306600E9412040895BB9AC398089597FB072E1D
S113067016F4009407D077FD09D00E94710307FC9B
S113068005D03EF4909581959F4F0895709561959E
S11306907F4F0895052E97FB1EF400940E9461037A
S11306A057FD07D00E94850307FC03D04EF40C9439
S11306B0610350954095309521953F4F4F4F5F4FC3
S11306C0089590958095709561957F4F8F4F9F4FBA
S11306D00895B7FF0C94A7030E94A703821B930BF2
S11306E00895AA1BBB1B51E107C0AA1FBB1FA61775
S11306F0B70710F0A61BB70B881F991F5A95A9F7C7
S113070080959095BC01CD010895A1E21A2EAA1BF3
S1130710BB1BFD010DC0AA1FBB1FEE1FFF1FA217AD
S1130720B307E407F50720F0A21BB30BE40BF50BAA
S1130730661F771F881F991F1A9469F76095709533
S1130740809590959B01AC01BD01CF0108950E9455
S1130750B203A59F900DB49F900DA49F800D911D91
S113076011240895A29FB001B39FC001A39F700DEF
S1130770811D1124911DB29F700D811D1124911DA5
S113078008958F929F92AF92BF92CF92DF92EF9291
S1130790FF92CF93DF93EC01688179818A819B81F9
S11307A0611571058105910521F464E279ED8BE50C
S11307B097E02DE133EF41E050E00E944A03490104
S11307C05A019B01AC01A7EAB1E40E94A7036B01A3
S11307D07C01ACEEB4EFA50194010E946C03DC0132
S11307E0CB018C0D9D1DAE1DBF1DB7FF03C001972E
S11307F0A109B04888839983AA83BB839F77DF913B
S1130800CF91FF90EF90DF90CF90BF90AF909F90EB
S11308108F9008950E94C103089580E690E00E949D
S1130820C1030895A0E0B0E080936000909361005C
S1110830A0936200B09363000895F894FFCF84
S113083E0100000018040E1F1F1F1F0E08040E1FB8
S113084E1F1F1F0E00040E1F1F1F1F0E00000E1F62
S113085E1F1F1F0E000000060E060C0000020816D5
S113086E0E060C12100108160212081104120012C0
S113087E0202100201010101010100000101010146
S113088E010100000101010101010000010101014A
S113089E010100000101010101010000000000003E
S11308AE000101000001010101010100000101012B
S11308BE010101000001010101010100000101011A
S11308CE0101010000000000000000000000010111
S11308DE00000101000001010101010100000101FC
S11308EE01010101000001010101010100000000EC
S11308FE00000000000000000000000101000001E3
S113090E01000001010000010101010101000001CB
S113091E01010101010000000000000000000000C0
S113092E0000000000000000424F4D4220444546A6
S113093E555345442100424F4D42204C4F53542EA3
S107094E2E2E000045
S9030000FC
