:100000000C942A000C9447000C9447000C94470071
:100010000C9447000C9447000C9447000C94470044
:100020000C9447000C94BD010C9447000C944700BD
:100030000C9447000C9447000C9447000C94470024
:100040000C9447000C9447000C9447000C94470014
:100050000C94470011241FBECFE5D8E0DEBFCDBF12
:1000600010E0A0E6B0E0E0EFF3E002C005900D92F2
:10007000A638B107D9F720E0A6E8B0E001C01D928C
:10008000AB38B207E1F70E94DD010C94F6010C9445
:1000900000008FEF8ABB1BBAD098D198D2980895F0
:1000A00080918700882319F08330C8F016C00E9421
:1000B0007600811103C0109287000895813031F4D9
:1000C00080938700909ADC9ADB9A089582E080936F
:1000D0008700919ADC98DB9A089510928700089522
:1000E00011BA8CEF82BB889A899A089560B3E09127
:1000F0008A00F0E0E05AFF4FE081F0E082E090E01B
:10010000A0E070E0AB01082E02C0559547950A9417
:10011000E2F79F01082E02C0359527950A94E2F771
:100120002427352720FD04C040FF04C0AF5F02C074
:1001300040FD09C001968730910521F781E0A33089
:1001400019F080E0089582E00895E0E0F0E041E0F9
:1001500050E02FC075B3CA01022E02C0880F991F4C
:100160000A94E2F7872B85BB84B38A2B84BB85B3C3
:10017000862385BB83B394B3962394BB15BA90E0D2
:10018000022E02C0959587950A94E2F780FD08C07B
:10019000EE0FFF1FEE0FFF1FE20FF31F319619C086
:1001A0002F5F3F4F24303105A9F63196E430F10539
:1001B00071F0CF0104969A0102C0220F331F8A9575
:1001C000E2F7A22F622F609520E030E0C3CFE0E09D
:1001D000F0E0EC58FF4F8081089514BA15BAB89A30
:1001E000B99ABA9ABB9AC098C198C298C398089510
:1001F00080918800823009F455C028F4882361F08A
:10020000813069F1A9C0843009F4A8C008F46DC038
:10021000853009F48EC0A0C00E94A500E0918A003C
:10022000F0E0EE0FFF1FEE0FFF1FEC59FF4F908124
:10023000891305C081E080938800C09A08958032B8
:1002400009F48CC085E08093880081E08093890068
:10025000C09AC19AC29AC39ADE98DD9A08950E9404
:10026000A500E0918A00F0E0EE0FFF1FEE0FFF1FE8
:10027000EC59FF4F9181891305C082E0809388007B
:10028000C19A0895803209F469C085E0809388009E
:1002900081E080938900C09AC19AC29AC39ADE987D
:1002A000DD9A08950E94A500E0918A00F0E0EE0F2B
:1002B000FF1FEE0FFF1FEC59FF4F9281891305C0FE
:1002C00083E080938800C29A0895803209F446C082
:1002D00085E08093880081E080938900C09AC19A6C
:1002E000C29AC39ADE98DD9A08950E94A500E09113
:1002F0008A00F0E0EE0FFF1FEE0FFF1FEC59FF4FDB
:100300009381891307C084E080938800C39ADE9AA2
:10031000DD9A0895803211F185E08093880081E0B4
:1003200080938900C09AC19AC29AC39ADE98DD9AD6
:10033000089580918900813039F4C098C198C2989D
:10034000C398109289000895C09AC19AC29AC39A1C
:1003500081E08093890008951092880008951FBC61
:1003600083E08EBD8EEE95E89DBD8CBD84E089BF97
:1003700088B7846088BF789408951F920F920FB653
:100380000F9211248F939F9381E0809386008EEECD
:1003900095E89DBD8CBD88B7846088BF9F918F9183
:1003A0000F900FBE0F901F901895C89BFECF89B37A
:1003B0008695837080938A0008950E9449000E9468
:1003C000ED000E9470000E94D5010E94AF011092C2
:1003D0008700109288000E9450000E94F8008091CF
:1003E00086008823E1F310928600F5CFF894FFCFC2
:1003F00034582C543841342344322A422335393777
:100400003639443420313233413435364237383985
:06041000432A30234400E2
:00000001FF
